{
  "_format": "hh-sol-artifact-1",
  "contractName": "MetaId",
  "sourceName": "contracts/MetaId.sol",
  "abi": [
    {
      "inputs": [
        {
          "internalType": "string",
          "name": "_name",
          "type": "string"
        },
        {
          "internalType": "string",
          "name": "_symbol",
          "type": "string"
        },
        {
          "internalType": "string",
          "name": "_metadataFolderURI",
          "type": "string"
        },
        {
          "internalType": "uint256",
          "name": "_mintsPerAddress",
          "type": "uint256"
        },
        {
          "internalType": "string",
          "name": "_openseaContractMetadataURL",
          "type": "string"
        },
        {
          "internalType": "bool",
          "name": "_mintActive",
          "type": "bool"
        },
        {
          "internalType": "address[]",
          "name": "_freeMintProjects",
          "type": "address[]"
        }
      ],
      "stateMutability": "nonpayable",
      "type": "constructor"
    },
    {
      "anonymous": false,
      "inputs": [
        {
          "indexed": true,
          "internalType": "address",
          "name": "owner",
          "type": "address"
        },
        {
          "indexed": true,
          "internalType": "address",
          "name": "approved",
          "type": "address"
        },
        {
          "indexed": true,
          "internalType": "uint256",
          "name": "tokenId",
          "type": "uint256"
        }
      ],
      "name": "Approval",
      "type": "event"
    },
    {
      "anonymous": false,
      "inputs": [
        {
          "indexed": true,
          "internalType": "address",
          "name": "owner",
          "type": "address"
        },
        {
          "indexed": true,
          "internalType": "address",
          "name": "operator",
          "type": "address"
        },
        {
          "indexed": false,
          "internalType": "bool",
          "name": "approved",
          "type": "bool"
        }
      ],
      "name": "ApprovalForAll",
      "type": "event"
    },
    {
      "anonymous": false,
      "inputs": [
        {
          "indexed": true,
          "internalType": "address",
          "name": "previousOwner",
          "type": "address"
        },
        {
          "indexed": true,
          "internalType": "address",
          "name": "newOwner",
          "type": "address"
        }
      ],
      "name": "OwnershipTransferred",
      "type": "event"
    },
    {
      "anonymous": false,
      "inputs": [
        {
          "indexed": true,
          "internalType": "address",
          "name": "from",
          "type": "address"
        },
        {
          "indexed": true,
          "internalType": "address",
          "name": "to",
          "type": "address"
        },
        {
          "indexed": true,
          "internalType": "uint256",
          "name": "tokenId",
          "type": "uint256"
        }
      ],
      "name": "Transfer",
      "type": "event"
    },
    {
      "inputs": [
        {
          "internalType": "address",
          "name": "freeMintProject",
          "type": "address"
        }
      ],
      "name": "addFreeMintProject",
      "outputs": [],
      "stateMutability": "nonpayable",
      "type": "function"
    },
    {
      "inputs": [
        {
          "internalType": "address",
          "name": "to",
          "type": "address"
        },
        {
          "internalType": "uint256",
          "name": "tokenId",
          "type": "uint256"
        }
      ],
      "name": "approve",
      "outputs": [],
      "stateMutability": "nonpayable",
      "type": "function"
    },
    {
      "inputs": [
        {
          "internalType": "address",
          "name": "owner",
          "type": "address"
        }
      ],
      "name": "balanceOf",
      "outputs": [
        {
          "internalType": "uint256",
          "name": "",
          "type": "uint256"
        }
      ],
      "stateMutability": "view",
      "type": "function"
    },
    {
      "inputs": [],
      "name": "contractURI",
      "outputs": [
        {
          "internalType": "string",
          "name": "",
          "type": "string"
        }
      ],
      "stateMutability": "view",
      "type": "function"
    },
    {
      "inputs": [
        {
          "internalType": "uint256",
          "name": "",
          "type": "uint256"
        }
      ],
      "name": "freeMintProjects",
      "outputs": [
        {
          "internalType": "address",
          "name": "",
          "type": "address"
        }
      ],
      "stateMutability": "view",
      "type": "function"
    },
    {
      "inputs": [],
      "name": "getAddress",
      "outputs": [
        {
          "internalType": "address",
          "name": "",
          "type": "address"
        }
      ],
      "stateMutability": "view",
      "type": "function"
    },
    {
      "inputs": [
        {
          "internalType": "uint256",
          "name": "tokenId",
          "type": "uint256"
        }
      ],
      "name": "getApproved",
      "outputs": [
        {
          "internalType": "address",
          "name": "",
          "type": "address"
        }
      ],
      "stateMutability": "view",
      "type": "function"
    },
    {
      "inputs": [],
      "name": "getBalance",
      "outputs": [
        {
          "internalType": "uint256",
          "name": "",
          "type": "uint256"
        }
      ],
      "stateMutability": "view",
      "type": "function"
    },
    {
      "inputs": [],
      "name": "getPrice",
      "outputs": [
        {
          "internalType": "uint256",
          "name": "",
          "type": "uint256"
        }
      ],
      "stateMutability": "view",
      "type": "function"
    },
    {
      "inputs": [
        {
          "internalType": "address",
          "name": "owner",
          "type": "address"
        },
        {
          "internalType": "address",
          "name": "operator",
          "type": "address"
        }
      ],
      "name": "isApprovedForAll",
      "outputs": [
        {
          "internalType": "bool",
          "name": "",
          "type": "bool"
        }
      ],
      "stateMutability": "view",
      "type": "function"
    },
    {
      "inputs": [],
      "name": "metadataFolderURI",
      "outputs": [
        {
          "internalType": "string",
          "name": "",
          "type": "string"
        }
      ],
      "stateMutability": "view",
      "type": "function"
    },
    {
      "inputs": [
        {
          "internalType": "address",
          "name": "minter",
          "type": "address"
        }
      ],
      "name": "mint",
      "outputs": [
        {
          "internalType": "uint256",
          "name": "",
          "type": "uint256"
        }
      ],
      "stateMutability": "payable",
      "type": "function"
    },
    {
      "inputs": [],
      "name": "mintActive",
      "outputs": [
        {
          "internalType": "bool",
          "name": "",
          "type": "bool"
        }
      ],
      "stateMutability": "view",
      "type": "function"
    },
    {
      "inputs": [
        {
          "internalType": "address",
          "name": "minter",
          "type": "address"
        },
        {
          "internalType": "address",
          "name": "freeMintProjectContract",
          "type": "address"
        },
        {
          "internalType": "uint256",
          "name": "freeMintProjectTokenID",
          "type": "uint256"
        }
      ],
      "name": "mintFree",
      "outputs": [
        {
          "internalType": "uint256",
          "name": "",
          "type": "uint256"
        }
      ],
      "stateMutability": "payable",
      "type": "function"
    },
    {
      "inputs": [
        {
          "internalType": "address",
          "name": "",
          "type": "address"
        }
      ],
      "name": "minted",
      "outputs": [
        {
          "internalType": "uint256",
          "name": "",
          "type": "uint256"
        }
      ],
      "stateMutability": "view",
      "type": "function"
    },
    {
      "inputs": [],
      "name": "mintedCount",
      "outputs": [
        {
          "internalType": "uint256",
          "name": "",
          "type": "uint256"
        }
      ],
      "stateMutability": "view",
      "type": "function"
    },
    {
      "inputs": [],
      "name": "mintsPerAddress",
      "outputs": [
        {
          "internalType": "uint256",
          "name": "",
          "type": "uint256"
        }
      ],
      "stateMutability": "view",
      "type": "function"
    },
    {
      "inputs": [],
      "name": "name",
      "outputs": [
        {
          "internalType": "string",
          "name": "",
          "type": "string"
        }
      ],
      "stateMutability": "view",
      "type": "function"
    },
    {
      "inputs": [],
      "name": "openseaContractMetadataURL",
      "outputs": [
        {
          "internalType": "string",
          "name": "",
          "type": "string"
        }
      ],
      "stateMutability": "view",
      "type": "function"
    },
    {
      "inputs": [],
      "name": "owner",
      "outputs": [
        {
          "internalType": "address",
          "name": "",
          "type": "address"
        }
      ],
      "stateMutability": "view",
      "type": "function"
    },
    {
      "inputs": [
        {
          "internalType": "uint256",
          "name": "tokenId",
          "type": "uint256"
        }
      ],
      "name": "ownerOf",
      "outputs": [
        {
          "internalType": "address",
          "name": "",
          "type": "address"
        }
      ],
      "stateMutability": "view",
      "type": "function"
    },
    {
      "inputs": [],
      "name": "price",
      "outputs": [
        {
          "internalType": "uint256",
          "name": "",
          "type": "uint256"
        }
      ],
      "stateMutability": "view",
      "type": "function"
    },
    {
      "inputs": [],
      "name": "renounceOwnership",
      "outputs": [],
      "stateMutability": "nonpayable",
      "type": "function"
    },
    {
      "inputs": [
        {
          "internalType": "address",
          "name": "from",
          "type": "address"
        },
        {
          "internalType": "address",
          "name": "to",
          "type": "address"
        },
        {
          "internalType": "uint256",
          "name": "tokenId",
          "type": "uint256"
        }
      ],
      "name": "safeTransferFrom",
      "outputs": [],
      "stateMutability": "nonpayable",
      "type": "function"
    },
    {
      "inputs": [
        {
          "internalType": "address",
          "name": "from",
          "type": "address"
        },
        {
          "internalType": "address",
          "name": "to",
          "type": "address"
        },
        {
          "internalType": "uint256",
          "name": "tokenId",
          "type": "uint256"
        },
        {
          "internalType": "bytes",
          "name": "_data",
          "type": "bytes"
        }
      ],
      "name": "safeTransferFrom",
      "outputs": [],
      "stateMutability": "nonpayable",
      "type": "function"
    },
    {
      "inputs": [
        {
          "internalType": "address",
          "name": "operator",
          "type": "address"
        },
        {
          "internalType": "bool",
          "name": "approved",
          "type": "bool"
        }
      ],
      "name": "setApprovalForAll",
      "outputs": [],
      "stateMutability": "nonpayable",
      "type": "function"
    },
    {
      "inputs": [
        {
          "internalType": "string",
          "name": "folderUrl",
          "type": "string"
        }
      ],
      "name": "setContractURI",
      "outputs": [],
      "stateMutability": "nonpayable",
      "type": "function"
    },
    {
      "inputs": [
        {
          "internalType": "string",
          "name": "folderUrl",
          "type": "string"
        }
      ],
      "name": "setMetadataFolderURI",
      "outputs": [],
      "stateMutability": "nonpayable",
      "type": "function"
    },
    {
      "inputs": [
        {
          "internalType": "bool",
          "name": "_mintActive",
          "type": "bool"
        }
      ],
      "name": "setMintActive",
      "outputs": [],
      "stateMutability": "nonpayable",
      "type": "function"
    },
    {
      "inputs": [
        {
          "internalType": "uint256",
          "name": "_newPrice",
          "type": "uint256"
        }
      ],
      "name": "setPrice",
      "outputs": [],
      "stateMutability": "nonpayable",
      "type": "function"
    },
    {
      "inputs": [
        {
          "internalType": "bytes4",
          "name": "interfaceId",
          "type": "bytes4"
        }
      ],
      "name": "supportsInterface",
      "outputs": [
        {
          "internalType": "bool",
          "name": "",
          "type": "bool"
        }
      ],
      "stateMutability": "view",
      "type": "function"
    },
    {
      "inputs": [],
      "name": "symbol",
      "outputs": [
        {
          "internalType": "string",
          "name": "",
          "type": "string"
        }
      ],
      "stateMutability": "view",
      "type": "function"
    },
    {
      "inputs": [
        {
          "internalType": "uint256",
          "name": "tokenId",
          "type": "uint256"
        }
      ],
      "name": "tokenURI",
      "outputs": [
        {
          "internalType": "string",
          "name": "",
          "type": "string"
        }
      ],
      "stateMutability": "view",
      "type": "function"
    },
    {
      "inputs": [
        {
          "internalType": "address",
          "name": "from",
          "type": "address"
        },
        {
          "internalType": "address",
          "name": "to",
          "type": "address"
        },
        {
          "internalType": "uint256",
          "name": "tokenId",
          "type": "uint256"
        }
      ],
      "name": "transferFrom",
      "outputs": [],
      "stateMutability": "nonpayable",
      "type": "function"
    },
    {
      "inputs": [
        {
          "internalType": "address",
          "name": "newOwner",
          "type": "address"
        }
      ],
      "name": "transferOwnership",
      "outputs": [],
      "stateMutability": "nonpayable",
      "type": "function"
    },
    {
      "inputs": [],
      "name": "withdraw",
      "outputs": [],
      "stateMutability": "nonpayable",
      "type": "function"
    }
  ],
  "bytecode": "0x608060405266470de4df820000600f553480156200001c57600080fd5b5060405162004a4338038062004a4383398181016040528101906200004291906200067b565b868681600090805190602001906200005c929190620001e7565b50806001908051906020019062000075929190620001e7565b505050620000986200008c6200011960201b60201c565b6200012160201b60201c565b60016007819055508460099080519060200190620000b8929190620001e7565b5083600c8190555082600d9080519060200190620000d8929190620001e7565b5081600b60006101000a81548160ff02191690831515021790555080600e90805190602001906200010b92919062000278565b50505050505050506200082d565b600033905090565b6000600660009054906101000a900473ffffffffffffffffffffffffffffffffffffffff16905081600660006101000a81548173ffffffffffffffffffffffffffffffffffffffff021916908373ffffffffffffffffffffffffffffffffffffffff1602179055508173ffffffffffffffffffffffffffffffffffffffff168173ffffffffffffffffffffffffffffffffffffffff167f8be0079c531659141344cd1fd0a4f28419497f9722a3daafe3b4186f6b6457e060405160405180910390a35050565b828054620001f590620007f8565b90600052602060002090601f01602090048101928262000219576000855562000265565b82601f106200023457805160ff191683800117855562000265565b8280016001018555821562000265579182015b828111156200026457825182559160200191906001019062000247565b5b50905062000274919062000307565b5090565b828054828255906000526020600020908101928215620002f4579160200282015b82811115620002f35782518260006101000a81548173ffffffffffffffffffffffffffffffffffffffff021916908373ffffffffffffffffffffffffffffffffffffffff1602179055509160200191906001019062000299565b5b50905062000303919062000307565b5090565b5b808211156200032257600081600090555060010162000308565b5090565b6000604051905090565b600080fd5b600080fd5b600080fd5b600080fd5b6000601f19601f8301169050919050565b7f4e487b7100000000000000000000000000000000000000000000000000000000600052604160045260246000fd5b6200038f8262000344565b810181811067ffffffffffffffff82111715620003b157620003b062000355565b5b80604052505050565b6000620003c662000326565b9050620003d4828262000384565b919050565b600067ffffffffffffffff821115620003f757620003f662000355565b5b620004028262000344565b9050602081019050919050565b60005b838110156200042f57808201518184015260208101905062000412565b838111156200043f576000848401525b50505050565b60006200045c6200045684620003d9565b620003ba565b9050828152602081018484840111156200047b576200047a6200033f565b5b620004888482856200040f565b509392505050565b600082601f830112620004a857620004a76200033a565b5b8151620004ba84826020860162000445565b91505092915050565b6000819050919050565b620004d881620004c3565b8114620004e457600080fd5b50565b600081519050620004f881620004cd565b92915050565b60008115159050919050565b6200051581620004fe565b81146200052157600080fd5b50565b60008151905062000535816200050a565b92915050565b600067ffffffffffffffff82111562000559576200055862000355565b5b602082029050602081019050919050565b600080fd5b600073ffffffffffffffffffffffffffffffffffffffff82169050919050565b60006200059c826200056f565b9050919050565b620005ae816200058f565b8114620005ba57600080fd5b50565b600081519050620005ce81620005a3565b92915050565b6000620005eb620005e5846200053b565b620003ba565b905080838252602082019050602084028301858111156200061157620006106200056a565b5b835b818110156200063e5780620006298882620005bd565b84526020840193505060208101905062000613565b5050509392505050565b600082601f83011262000660576200065f6200033a565b5b815162000672848260208601620005d4565b91505092915050565b600080600080600080600060e0888a0312156200069d576200069c62000330565b5b600088015167ffffffffffffffff811115620006be57620006bd62000335565b5b620006cc8a828b0162000490565b975050602088015167ffffffffffffffff811115620006f057620006ef62000335565b5b620006fe8a828b0162000490565b965050604088015167ffffffffffffffff81111562000722576200072162000335565b5b620007308a828b0162000490565b9550506060620007438a828b01620004e7565b945050608088015167ffffffffffffffff81111562000767576200076662000335565b5b620007758a828b0162000490565b93505060a0620007888a828b0162000524565b92505060c088015167ffffffffffffffff811115620007ac57620007ab62000335565b5b620007ba8a828b0162000648565b91505092959891949750929550565b7f4e487b7100000000000000000000000000000000000000000000000000000000600052602260045260246000fd5b600060028204905060018216806200081157607f821691505b602082108103620008275762000826620007c9565b5b50919050565b614206806200083d6000396000f3fe60806040526004361061020f5760003560e01c806376722fa911610118578063a1182e8e116100a0578063cf721b151161006f578063cf721b1514610797578063e8a3d485146107c2578063e985e9c5146107ed578063ee1cc9441461082a578063f2fde38b146108535761020f565b8063a1182e8e146106dd578063a22cb46514610708578063b88d4fde14610731578063c87b56dd1461075a5761020f565b8063938e3d7b116100e7578063938e3d7b1461060857806395d89b411461063157806398d5fdca1461065c5780639a893c1614610687578063a035b1fe146106b25761020f565b806376722fa91461055b5780638da5cb5b1461058b5780638f9d8520146105b657806391b7f5ed146105df5761020f565b806325fd90f31161019b57806347cce0911161016a57806347cce0911461046f5780636352211e1461049a5780636a627842146104d757806370a0823114610507578063715018a6146105445761020f565b806325fd90f3146103d957806338cc4831146104045780633ccfd60b1461042f57806342842e0e146104465761020f565b80630a8cabfb116101e25780630a8cabfb146102e25780630c677ebf1461031f57806312065fe0146103485780631e7269c51461037357806323b872dd146103b05761020f565b806301ffc9a71461021457806306fdde0314610251578063081812fc1461027c578063095ea7b3146102b9575b600080fd5b34801561022057600080fd5b5061023b60048036038101906102369190612c21565b61087c565b6040516102489190612c69565b60405180910390f35b34801561025d57600080fd5b5061026661095e565b6040516102739190612d1d565b60405180910390f35b34801561028857600080fd5b506102a3600480360381019061029e9190612d75565b6109f0565b6040516102b09190612de3565b60405180910390f35b3480156102c557600080fd5b506102e060048036038101906102db9190612e2a565b610a75565b005b3480156102ee57600080fd5b5061030960048036038101906103049190612d75565b610b8c565b6040516103169190612de3565b60405180910390f35b34801561032b57600080fd5b5061034660048036038101906103419190612e6a565b610bcb565b005b34801561035457600080fd5b5061035d610cad565b60405161036a9190612ea6565b60405180910390f35b34801561037f57600080fd5b5061039a60048036038101906103959190612e6a565b610cb5565b6040516103a79190612ea6565b60405180910390f35b3480156103bc57600080fd5b506103d760048036038101906103d29190612ec1565b610ccd565b005b3480156103e557600080fd5b506103ee610d2d565b6040516103fb9190612c69565b60405180910390f35b34801561041057600080fd5b50610419610d40565b6040516104269190612de3565b60405180910390f35b34801561043b57600080fd5b50610444610d48565b005b34801561045257600080fd5b5061046d60048036038101906104689190612ec1565b610e8c565b005b34801561047b57600080fd5b50610484610eac565b6040516104919190612ea6565b60405180910390f35b3480156104a657600080fd5b506104c160048036038101906104bc9190612d75565b610eb2565b6040516104ce9190612de3565b60405180910390f35b6104f160048036038101906104ec9190612e6a565b610f63565b6040516104fe9190612ea6565b60405180910390f35b34801561051357600080fd5b5061052e60048036038101906105299190612e6a565b6111c5565b60405161053b9190612ea6565b60405180910390f35b34801561055057600080fd5b5061055961127c565b005b61057560048036038101906105709190612ec1565b611304565b6040516105829190612ea6565b60405180910390f35b34801561059757600080fd5b506105a061156e565b6040516105ad9190612de3565b60405180910390f35b3480156105c257600080fd5b506105dd60048036038101906105d89190612f79565b611598565b005b3480156105eb57600080fd5b5061060660048036038101906106019190612d75565b61162a565b005b34801561061457600080fd5b5061062f600480360381019061062a9190612f79565b6116b0565b005b34801561063d57600080fd5b50610646611742565b6040516106539190612d1d565b60405180910390f35b34801561066857600080fd5b506106716117d4565b60405161067e9190612ea6565b60405180910390f35b34801561069357600080fd5b5061069c6117de565b6040516106a99190612d1d565b60405180910390f35b3480156106be57600080fd5b506106c761186c565b6040516106d49190612ea6565b60405180910390f35b3480156106e957600080fd5b506106f2611872565b6040516106ff9190612d1d565b60405180910390f35b34801561071457600080fd5b5061072f600480360381019061072a9190612ff2565b611900565b005b34801561073d57600080fd5b5061075860048036038101906107539190613162565b611916565b005b34801561076657600080fd5b50610781600480360381019061077c9190612d75565b611978565b60405161078e9190612d1d565b60405180910390f35b3480156107a357600080fd5b506107ac6119f4565b6040516107b99190612ea6565b60405180910390f35b3480156107ce57600080fd5b506107d7611a05565b6040516107e49190612d1d565b60405180910390f35b3480156107f957600080fd5b50610814600480360381019061080f91906131e5565b611a97565b6040516108219190612c69565b60405180910390f35b34801561083657600080fd5b50610851600480360381019061084c9190613225565b611b2b565b005b34801561085f57600080fd5b5061087a60048036038101906108759190612e6a565b611bc4565b005b60007f80ac58cd000000000000000000000000000000000000000000000000000000007bffffffffffffffffffffffffffffffffffffffffffffffffffffffff1916827bffffffffffffffffffffffffffffffffffffffffffffffffffffffff1916148061094757507f5b5e139f000000000000000000000000000000000000000000000000000000007bffffffffffffffffffffffffffffffffffffffffffffffffffffffff1916827bffffffffffffffffffffffffffffffffffffffffffffffffffffffff1916145b80610957575061095682611cbb565b5b9050919050565b60606000805461096d90613281565b80601f016020809104026020016040519081016040528092919081815260200182805461099990613281565b80156109e65780601f106109bb576101008083540402835291602001916109e6565b820191906000526020600020905b8154815290600101906020018083116109c957829003601f168201915b5050505050905090565b60006109fb82611d25565b610a3a576040517f08c379a0000000000000000000000000000000000000000000000000000000008152600401610a3190613324565b60405180910390fd5b6004600083815260200190815260200160002060009054906101000a900473ffffffffffffffffffffffffffffffffffffffff169050919050565b6000610a8082610eb2565b90508073ffffffffffffffffffffffffffffffffffffffff168373ffffffffffffffffffffffffffffffffffffffff1603610af0576040517f08c379a0000000000000000000000000000000000000000000000000000000008152600401610ae7906133b6565b60405180910390fd5b8073ffffffffffffffffffffffffffffffffffffffff16610b0f611d91565b73ffffffffffffffffffffffffffffffffffffffff161480610b3e5750610b3d81610b38611d91565b611a97565b5b610b7d576040517f08c379a0000000000000000000000000000000000000000000000000000000008152600401610b7490613448565b60405180910390fd5b610b878383611d99565b505050565b600e8181548110610b9c57600080fd5b906000526020600020016000915054906101000a900473ffffffffffffffffffffffffffffffffffffffff1681565b610bd3611d91565b73ffffffffffffffffffffffffffffffffffffffff16610bf161156e565b73ffffffffffffffffffffffffffffffffffffffff1614610c47576040517f08c379a0000000000000000000000000000000000000000000000000000000008152600401610c3e906134b4565b60405180910390fd5b600e819080600181540180825580915050600190039060005260206000200160009091909190916101000a81548173ffffffffffffffffffffffffffffffffffffffff021916908373ffffffffffffffffffffffffffffffffffffffff16021790555050565b600047905090565b600a6020528060005260406000206000915090505481565b610cde610cd8611d91565b82611e52565b610d1d576040517f08c379a0000000000000000000000000000000000000000000000000000000008152600401610d1490613546565b60405180910390fd5b610d28838383611f30565b505050565b600b60009054906101000a900460ff1681565b600030905090565b610d50611d91565b73ffffffffffffffffffffffffffffffffffffffff16610d6e61156e565b73ffffffffffffffffffffffffffffffffffffffff1614610dc4576040517f08c379a0000000000000000000000000000000000000000000000000000000008152600401610dbb906134b4565b60405180910390fd5b6000600447610dd391906135c4565b90503373ffffffffffffffffffffffffffffffffffffffff166108fc600383610dfc91906135f5565b9081150290604051600060405180830381858888f19350505050158015610e27573d6000803e3d6000fd5b50600073750ef1d7a0b4ab1c97b7a623d7917cceb5ea779c90508073ffffffffffffffffffffffffffffffffffffffff166108fc839081150290604051600060405180830381858888f19350505050158015610e87573d6000803e3d6000fd5b505050565b610ea783838360405180602001604052806000815250611916565b505050565b600c5481565b6000806002600084815260200190815260200160002060009054906101000a900473ffffffffffffffffffffffffffffffffffffffff169050600073ffffffffffffffffffffffffffffffffffffffff168173ffffffffffffffffffffffffffffffffffffffff1603610f5a576040517f08c379a0000000000000000000000000000000000000000000000000000000008152600401610f51906136c1565b60405180910390fd5b80915050919050565b6000600260075403610faa576040517f08c379a0000000000000000000000000000000000000000000000000000000008152600401610fa19061372d565b60405180910390fd5b600260078190555060011515600b60009054906101000a900460ff16151514611008576040517f08c379a0000000000000000000000000000000000000000000000000000000008152600401610fff90613799565b60405180910390fd5b3373ffffffffffffffffffffffffffffffffffffffff168273ffffffffffffffffffffffffffffffffffffffff1614611076576040517f08c379a000000000000000000000000000000000000000000000000000000000815260040161106d90613805565b60405180910390fd5b600c54600a60003373ffffffffffffffffffffffffffffffffffffffff1673ffffffffffffffffffffffffffffffffffffffff16815260200190815260200160002054106110f9576040517f08c379a00000000000000000000000000000000000000000000000000000000081526004016110f090613871565b60405180910390fd5b600f54341461113d576040517f08c379a0000000000000000000000000000000000000000000000000000000008152600401611134906138dd565b60405180910390fd5b6111476008612196565b600a60003373ffffffffffffffffffffffffffffffffffffffff1673ffffffffffffffffffffffffffffffffffffffff1681526020019081526020016000206000815480929190611197906138fd565b919050555060006111a860086121ac565b90506111b433826121ba565b809150506001600781905550919050565b60008073ffffffffffffffffffffffffffffffffffffffff168273ffffffffffffffffffffffffffffffffffffffff1603611235576040517f08c379a000000000000000000000000000000000000000000000000000000000815260040161122c906139b7565b60405180910390fd5b600360008373ffffffffffffffffffffffffffffffffffffffff1673ffffffffffffffffffffffffffffffffffffffff168152602001908152602001600020549050919050565b611284611d91565b73ffffffffffffffffffffffffffffffffffffffff166112a261156e565b73ffffffffffffffffffffffffffffffffffffffff16146112f8576040517f08c379a00000000000000000000000000000000000000000000000000000000081526004016112ef906134b4565b60405180910390fd5b61130260006121d8565b565b600060026007540361134b576040517f08c379a00000000000000000000000000000000000000000000000000000000081526004016113429061372d565b60405180910390fd5b600260078190555060011515600b60009054906101000a900460ff161515146113a9576040517f08c379a00000000000000000000000000000000000000000000000000000000081526004016113a090613799565b60405180910390fd5b3373ffffffffffffffffffffffffffffffffffffffff168473ffffffffffffffffffffffffffffffffffffffff1614611417576040517f08c379a000000000000000000000000000000000000000000000000000000000815260040161140e90613805565b60405180910390fd5b600c54600a60003373ffffffffffffffffffffffffffffffffffffffff1673ffffffffffffffffffffffffffffffffffffffff168152602001908152602001600020541061149a576040517f08c379a000000000000000000000000000000000000000000000000000000000815260040161149190613871565b60405180910390fd5b6114a584848461229e565b6114e4576040517f08c379a00000000000000000000000000000000000000000000000000000000081526004016114db90613a23565b60405180910390fd5b6114ee6008612196565b600a60003373ffffffffffffffffffffffffffffffffffffffff1673ffffffffffffffffffffffffffffffffffffffff168152602001908152602001600020600081548092919061153e906138fd565b9190505550600061154f60086121ac565b905061155b33826121ba565b8091505060016007819055509392505050565b6000600660009054906101000a900473ffffffffffffffffffffffffffffffffffffffff16905090565b6115a0611d91565b73ffffffffffffffffffffffffffffffffffffffff166115be61156e565b73ffffffffffffffffffffffffffffffffffffffff1614611614576040517f08c379a000000000000000000000000000000000000000000000000000000000815260040161160b906134b4565b60405180910390fd5b818160099190611625929190612b12565b505050565b611632611d91565b73ffffffffffffffffffffffffffffffffffffffff1661165061156e565b73ffffffffffffffffffffffffffffffffffffffff16146116a6576040517f08c379a000000000000000000000000000000000000000000000000000000000815260040161169d906134b4565b60405180910390fd5b80600f8190555050565b6116b8611d91565b73ffffffffffffffffffffffffffffffffffffffff166116d661156e565b73ffffffffffffffffffffffffffffffffffffffff161461172c576040517f08c379a0000000000000000000000000000000000000000000000000000000008152600401611723906134b4565b60405180910390fd5b8181600d919061173d929190612b12565b505050565b60606001805461175190613281565b80601f016020809104026020016040519081016040528092919081815260200182805461177d90613281565b80156117ca5780601f1061179f576101008083540402835291602001916117ca565b820191906000526020600020905b8154815290600101906020018083116117ad57829003601f168201915b5050505050905090565b6000600f54905090565b600d80546117eb90613281565b80601f016020809104026020016040519081016040528092919081815260200182805461181790613281565b80156118645780601f1061183957610100808354040283529160200191611864565b820191906000526020600020905b81548152906001019060200180831161184757829003601f168201915b505050505081565b600f5481565b6009805461187f90613281565b80601f01602080910402602001604051908101604052809291908181526020018280546118ab90613281565b80156118f85780601f106118cd576101008083540402835291602001916118f8565b820191906000526020600020905b8154815290600101906020018083116118db57829003601f168201915b505050505081565b61191261190b611d91565b8383612402565b5050565b611927611921611d91565b83611e52565b611966576040517f08c379a000000000000000000000000000000000000000000000000000000000815260040161195d90613546565b60405180910390fd5b6119728484848461256e565b50505050565b606061198382611d25565b6119c2576040517f08c379a00000000000000000000000000000000000000000000000000000000081526004016119b990613a8f565b60405180910390fd5b60096119cd836125ca565b6040516020016119de929190613b7f565b6040516020818303038152906040529050919050565b6000611a0060086121ac565b905090565b6060600d8054611a1490613281565b80601f0160208091040260200160405190810160405280929190818152602001828054611a4090613281565b8015611a8d5780601f10611a6257610100808354040283529160200191611a8d565b820191906000526020600020905b815481529060010190602001808311611a7057829003601f168201915b5050505050905090565b6000600560008473ffffffffffffffffffffffffffffffffffffffff1673ffffffffffffffffffffffffffffffffffffffff16815260200190815260200160002060008373ffffffffffffffffffffffffffffffffffffffff1673ffffffffffffffffffffffffffffffffffffffff16815260200190815260200160002060009054906101000a900460ff16905092915050565b611b33611d91565b73ffffffffffffffffffffffffffffffffffffffff16611b5161156e565b73ffffffffffffffffffffffffffffffffffffffff1614611ba7576040517f08c379a0000000000000000000000000000000000000000000000000000000008152600401611b9e906134b4565b60405180910390fd5b80600b60006101000a81548160ff02191690831515021790555050565b611bcc611d91565b73ffffffffffffffffffffffffffffffffffffffff16611bea61156e565b73ffffffffffffffffffffffffffffffffffffffff1614611c40576040517f08c379a0000000000000000000000000000000000000000000000000000000008152600401611c37906134b4565b60405180910390fd5b600073ffffffffffffffffffffffffffffffffffffffff168173ffffffffffffffffffffffffffffffffffffffff1603611caf576040517f08c379a0000000000000000000000000000000000000000000000000000000008152600401611ca690613c15565b60405180910390fd5b611cb8816121d8565b50565b60007f01ffc9a7000000000000000000000000000000000000000000000000000000007bffffffffffffffffffffffffffffffffffffffffffffffffffffffff1916827bffffffffffffffffffffffffffffffffffffffffffffffffffffffff1916149050919050565b60008073ffffffffffffffffffffffffffffffffffffffff166002600084815260200190815260200160002060009054906101000a900473ffffffffffffffffffffffffffffffffffffffff1673ffffffffffffffffffffffffffffffffffffffff1614159050919050565b600033905090565b816004600083815260200190815260200160002060006101000a81548173ffffffffffffffffffffffffffffffffffffffff021916908373ffffffffffffffffffffffffffffffffffffffff160217905550808273ffffffffffffffffffffffffffffffffffffffff16611e0c83610eb2565b73ffffffffffffffffffffffffffffffffffffffff167f8c5be1e5ebec7d5bd14f71427d1e84f3dd0314c0f7b2291e5b200ac8c7c3b92560405160405180910390a45050565b6000611e5d82611d25565b611e9c576040517f08c379a0000000000000000000000000000000000000000000000000000000008152600401611e9390613ca7565b60405180910390fd5b6000611ea783610eb2565b90508073ffffffffffffffffffffffffffffffffffffffff168473ffffffffffffffffffffffffffffffffffffffff161480611f1657508373ffffffffffffffffffffffffffffffffffffffff16611efe846109f0565b73ffffffffffffffffffffffffffffffffffffffff16145b80611f275750611f268185611a97565b5b91505092915050565b8273ffffffffffffffffffffffffffffffffffffffff16611f5082610eb2565b73ffffffffffffffffffffffffffffffffffffffff1614611fa6576040517f08c379a0000000000000000000000000000000000000000000000000000000008152600401611f9d90613d39565b60405180910390fd5b600073ffffffffffffffffffffffffffffffffffffffff168273ffffffffffffffffffffffffffffffffffffffff1603612015576040517f08c379a000000000000000000000000000000000000000000000000000000000815260040161200c90613dcb565b60405180910390fd5b61202083838361272a565b61202b600082611d99565b6001600360008573ffffffffffffffffffffffffffffffffffffffff1673ffffffffffffffffffffffffffffffffffffffff168152602001908152602001600020600082825461207b9190613deb565b925050819055506001600360008473ffffffffffffffffffffffffffffffffffffffff1673ffffffffffffffffffffffffffffffffffffffff16815260200190815260200160002060008282546120d29190613e1f565b92505081905550816002600083815260200190815260200160002060006101000a81548173ffffffffffffffffffffffffffffffffffffffff021916908373ffffffffffffffffffffffffffffffffffffffff160217905550808273ffffffffffffffffffffffffffffffffffffffff168473ffffffffffffffffffffffffffffffffffffffff167fddf252ad1be2c89b69c2b068fc378daa952ba7f163c4a11628f55a4df523b3ef60405160405180910390a461219183838361272f565b505050565b6001816000016000828254019250508190555050565b600081600001549050919050565b6121d4828260405180602001604052806000815250612734565b5050565b6000600660009054906101000a900473ffffffffffffffffffffffffffffffffffffffff16905081600660006101000a81548173ffffffffffffffffffffffffffffffffffffffff021916908373ffffffffffffffffffffffffffffffffffffffff1602179055508173ffffffffffffffffffffffffffffffffffffffff168173ffffffffffffffffffffffffffffffffffffffff167f8be0079c531659141344cd1fd0a4f28419497f9722a3daafe3b4186f6b6457e060405160405180910390a35050565b6000806000905060005b600e8054905081101561233e578473ffffffffffffffffffffffffffffffffffffffff16600e82815481106122e0576122df613e75565b5b9060005260206000200160009054906101000a900473ffffffffffffffffffffffffffffffffffffffff1673ffffffffffffffffffffffffffffffffffffffff160361232b57600191505b8080612336906138fd565b9150506122a8565b5080156123f5578473ffffffffffffffffffffffffffffffffffffffff168473ffffffffffffffffffffffffffffffffffffffff16636352211e856040518263ffffffff1660e01b81526004016123959190612ea6565b602060405180830381865afa1580156123b2573d6000803e3d6000fd5b505050506040513d601f19601f820116820180604052508101906123d69190613eb9565b73ffffffffffffffffffffffffffffffffffffffff16149150506123fb565b60009150505b9392505050565b8173ffffffffffffffffffffffffffffffffffffffff168373ffffffffffffffffffffffffffffffffffffffff1603612470576040517f08c379a000000000000000000000000000000000000000000000000000000000815260040161246790613f32565b60405180910390fd5b80600560008573ffffffffffffffffffffffffffffffffffffffff1673ffffffffffffffffffffffffffffffffffffffff16815260200190815260200160002060008473ffffffffffffffffffffffffffffffffffffffff1673ffffffffffffffffffffffffffffffffffffffff16815260200190815260200160002060006101000a81548160ff0219169083151502179055508173ffffffffffffffffffffffffffffffffffffffff168373ffffffffffffffffffffffffffffffffffffffff167f17307eab39ab6107e8899845ad3d59bd9653f200f220920489ca2b5937696c31836040516125619190612c69565b60405180910390a3505050565b612579848484611f30565b6125858484848461278f565b6125c4576040517f08c379a00000000000000000000000000000000000000000000000000000000081526004016125bb90613fc4565b60405180910390fd5b50505050565b606060008203612611576040518060400160405280600181526020017f30000000000000000000000000000000000000000000000000000000000000008152509050612725565b600082905060005b6000821461264357808061262c906138fd565b915050600a8261263c91906135c4565b9150612619565b60008167ffffffffffffffff81111561265f5761265e613037565b5b6040519080825280601f01601f1916602001820160405280156126915781602001600182028036833780820191505090505b5090505b6000851461271e576001826126aa9190613deb565b9150600a856126b99190613fe4565b60306126c59190613e1f565b60f81b8183815181106126db576126da613e75565b5b60200101907effffffffffffffffffffffffffffffffffffffffffffffffffffffffffffff1916908160001a905350600a8561271791906135c4565b9450612695565b8093505050505b919050565b505050565b505050565b61273e8383612916565b61274b600084848461278f565b61278a576040517f08c379a000000000000000000000000000000000000000000000000000000000815260040161278190613fc4565b60405180910390fd5b505050565b60006127b08473ffffffffffffffffffffffffffffffffffffffff16612aef565b15612909578373ffffffffffffffffffffffffffffffffffffffff1663150b7a026127d9611d91565b8786866040518563ffffffff1660e01b81526004016127fb949392919061406a565b6020604051808303816000875af192505050801561283757506040513d601f19601f8201168201806040525081019061283491906140cb565b60015b6128b9573d8060008114612867576040519150601f19603f3d011682016040523d82523d6000602084013e61286c565b606091505b5060008151036128b1576040517f08c379a00000000000000000000000000000000000000000000000000000000081526004016128a890613fc4565b60405180910390fd5b805181602001fd5b63150b7a0260e01b7bffffffffffffffffffffffffffffffffffffffffffffffffffffffff1916817bffffffffffffffffffffffffffffffffffffffffffffffffffffffff19161491505061290e565b600190505b949350505050565b600073ffffffffffffffffffffffffffffffffffffffff168273ffffffffffffffffffffffffffffffffffffffff1603612985576040517f08c379a000000000000000000000000000000000000000000000000000000000815260040161297c90614144565b60405180910390fd5b61298e81611d25565b156129ce576040517f08c379a00000000000000000000000000000000000000000000000000000000081526004016129c5906141b0565b60405180910390fd5b6129da6000838361272a565b6001600360008473ffffffffffffffffffffffffffffffffffffffff1673ffffffffffffffffffffffffffffffffffffffff1681526020019081526020016000206000828254612a2a9190613e1f565b92505081905550816002600083815260200190815260200160002060006101000a81548173ffffffffffffffffffffffffffffffffffffffff021916908373ffffffffffffffffffffffffffffffffffffffff160217905550808273ffffffffffffffffffffffffffffffffffffffff16600073ffffffffffffffffffffffffffffffffffffffff167fddf252ad1be2c89b69c2b068fc378daa952ba7f163c4a11628f55a4df523b3ef60405160405180910390a4612aeb6000838361272f565b5050565b6000808273ffffffffffffffffffffffffffffffffffffffff163b119050919050565b828054612b1e90613281565b90600052602060002090601f016020900481019282612b405760008555612b87565b82601f10612b5957803560ff1916838001178555612b87565b82800160010185558215612b87579182015b82811115612b86578235825591602001919060010190612b6b565b5b509050612b949190612b98565b5090565b5b80821115612bb1576000816000905550600101612b99565b5090565b6000604051905090565b600080fd5b600080fd5b60007fffffffff0000000000000000000000000000000000000000000000000000000082169050919050565b612bfe81612bc9565b8114612c0957600080fd5b50565b600081359050612c1b81612bf5565b92915050565b600060208284031215612c3757612c36612bbf565b5b6000612c4584828501612c0c565b91505092915050565b60008115159050919050565b612c6381612c4e565b82525050565b6000602082019050612c7e6000830184612c5a565b92915050565b600081519050919050565b600082825260208201905092915050565b60005b83811015612cbe578082015181840152602081019050612ca3565b83811115612ccd576000848401525b50505050565b6000601f19601f8301169050919050565b6000612cef82612c84565b612cf98185612c8f565b9350612d09818560208601612ca0565b612d1281612cd3565b840191505092915050565b60006020820190508181036000830152612d378184612ce4565b905092915050565b6000819050919050565b612d5281612d3f565b8114612d5d57600080fd5b50565b600081359050612d6f81612d49565b92915050565b600060208284031215612d8b57612d8a612bbf565b5b6000612d9984828501612d60565b91505092915050565b600073ffffffffffffffffffffffffffffffffffffffff82169050919050565b6000612dcd82612da2565b9050919050565b612ddd81612dc2565b82525050565b6000602082019050612df86000830184612dd4565b92915050565b612e0781612dc2565b8114612e1257600080fd5b50565b600081359050612e2481612dfe565b92915050565b60008060408385031215612e4157612e40612bbf565b5b6000612e4f85828601612e15565b9250506020612e6085828601612d60565b9150509250929050565b600060208284031215612e8057612e7f612bbf565b5b6000612e8e84828501612e15565b91505092915050565b612ea081612d3f565b82525050565b6000602082019050612ebb6000830184612e97565b92915050565b600080600060608486031215612eda57612ed9612bbf565b5b6000612ee886828701612e15565b9350506020612ef986828701612e15565b9250506040612f0a86828701612d60565b9150509250925092565b600080fd5b600080fd5b600080fd5b60008083601f840112612f3957612f38612f14565b5b8235905067ffffffffffffffff811115612f5657612f55612f19565b5b602083019150836001820283011115612f7257612f71612f1e565b5b9250929050565b60008060208385031215612f9057612f8f612bbf565b5b600083013567ffffffffffffffff811115612fae57612fad612bc4565b5b612fba85828601612f23565b92509250509250929050565b612fcf81612c4e565b8114612fda57600080fd5b50565b600081359050612fec81612fc6565b92915050565b6000806040838503121561300957613008612bbf565b5b600061301785828601612e15565b925050602061302885828601612fdd565b9150509250929050565b600080fd5b7f4e487b7100000000000000000000000000000000000000000000000000000000600052604160045260246000fd5b61306f82612cd3565b810181811067ffffffffffffffff8211171561308e5761308d613037565b5b80604052505050565b60006130a1612bb5565b90506130ad8282613066565b919050565b600067ffffffffffffffff8211156130cd576130cc613037565b5b6130d682612cd3565b9050602081019050919050565b82818337600083830152505050565b6000613105613100846130b2565b613097565b90508281526020810184848401111561312157613120613032565b5b61312c8482856130e3565b509392505050565b600082601f83011261314957613148612f14565b5b81356131598482602086016130f2565b91505092915050565b6000806000806080858703121561317c5761317b612bbf565b5b600061318a87828801612e15565b945050602061319b87828801612e15565b93505060406131ac87828801612d60565b925050606085013567ffffffffffffffff8111156131cd576131cc612bc4565b5b6131d987828801613134565b91505092959194509250565b600080604083850312156131fc576131fb612bbf565b5b600061320a85828601612e15565b925050602061321b85828601612e15565b9150509250929050565b60006020828403121561323b5761323a612bbf565b5b600061324984828501612fdd565b91505092915050565b7f4e487b7100000000000000000000000000000000000000000000000000000000600052602260045260246000fd5b6000600282049050600182168061329957607f821691505b6020821081036132ac576132ab613252565b5b50919050565b7f4552433732313a20617070726f76656420717565727920666f72206e6f6e657860008201527f697374656e7420746f6b656e0000000000000000000000000000000000000000602082015250565b600061330e602c83612c8f565b9150613319826132b2565b604082019050919050565b6000602082019050818103600083015261333d81613301565b9050919050565b7f4552433732313a20617070726f76616c20746f2063757272656e74206f776e6560008201527f7200000000000000000000000000000000000000000000000000000000000000602082015250565b60006133a0602183612c8f565b91506133ab82613344565b604082019050919050565b600060208201905081810360008301526133cf81613393565b9050919050565b7f4552433732313a20617070726f76652063616c6c6572206973206e6f74206f7760008201527f6e6572206e6f7220617070726f76656420666f7220616c6c0000000000000000602082015250565b6000613432603883612c8f565b915061343d826133d6565b604082019050919050565b6000602082019050818103600083015261346181613425565b9050919050565b7f4f776e61626c653a2063616c6c6572206973206e6f7420746865206f776e6572600082015250565b600061349e602083612c8f565b91506134a982613468565b602082019050919050565b600060208201905081810360008301526134cd81613491565b9050919050565b7f4552433732313a207472616e736665722063616c6c6572206973206e6f74206f60008201527f776e6572206e6f7220617070726f766564000000000000000000000000000000602082015250565b6000613530603183612c8f565b915061353b826134d4565b604082019050919050565b6000602082019050818103600083015261355f81613523565b9050919050565b7f4e487b7100000000000000000000000000000000000000000000000000000000600052601260045260246000fd5b7f4e487b7100000000000000000000000000000000000000000000000000000000600052601160045260246000fd5b60006135cf82612d3f565b91506135da83612d3f565b9250826135ea576135e9613566565b5b828204905092915050565b600061360082612d3f565b915061360b83612d3f565b9250817fffffffffffffffffffffffffffffffffffffffffffffffffffffffffffffffff048311821515161561364457613643613595565b5b828202905092915050565b7f4552433732313a206f776e657220717565727920666f72206e6f6e657869737460008201527f656e7420746f6b656e0000000000000000000000000000000000000000000000602082015250565b60006136ab602983612c8f565b91506136b68261364f565b604082019050919050565b600060208201905081810360008301526136da8161369e565b9050919050565b7f5265656e7472616e637947756172643a207265656e7472616e742063616c6c00600082015250565b6000613717601f83612c8f565b9150613722826136e1565b602082019050919050565b600060208201905081810360008301526137468161370a565b9050919050565b7f6d696e74206973206e6f742061637469766520726e2e2e000000000000000000600082015250565b6000613783601783612c8f565b915061378e8261374d565b602082019050919050565b600060208201905081810360008301526137b281613776565b9050919050565b7f796f75206861766520746f206d696e7420666f7220796f757273656c66000000600082015250565b60006137ef601d83612c8f565b91506137fa826137b9565b602082019050919050565b6000602082019050818103600083015261381e816137e2565b9050919050565b7f6f6e6c792031206d696e74207065722077616c6c657420616464726573730000600082015250565b600061385b601e83612c8f565b915061386682613825565b602082019050919050565b6000602082019050818103600083015261388a8161384e565b9050919050565b7f496e636f7272656374206d696e74207072696365000000000000000000000000600082015250565b60006138c7601483612c8f565b91506138d282613891565b602082019050919050565b600060208201905081810360008301526138f6816138ba565b9050919050565b600061390882612d3f565b91507fffffffffffffffffffffffffffffffffffffffffffffffffffffffffffffffff820361393a57613939613595565b5b600182019050919050565b7f4552433732313a2062616c616e636520717565727920666f7220746865207a6560008201527f726f206164647265737300000000000000000000000000000000000000000000602082015250565b60006139a1602a83612c8f565b91506139ac82613945565b604082019050919050565b600060208201905081810360008301526139d081613994565b9050919050565b7f446f206e6f74206f776e2066726565206d696e742070726f6a65637400000000600082015250565b6000613a0d601c83612c8f565b9150613a18826139d7565b602082019050919050565b60006020820190508181036000830152613a3c81613a00565b9050919050565b7f45524337323155524953746f726167653a20746f6b656e20444e490000000000600082015250565b6000613a79601b83612c8f565b9150613a8482613a43565b602082019050919050565b60006020820190508181036000830152613aa881613a6c565b9050919050565b600081905092915050565b60008190508160005260206000209050919050565b60008154613adc81613281565b613ae68186613aaf565b94506001821660008114613b015760018114613b1257613b45565b60ff19831686528186019350613b45565b613b1b85613aba565b60005b83811015613b3d57815481890152600182019150602081019050613b1e565b838801955050505b50505092915050565b6000613b5982612c84565b613b638185613aaf565b9350613b73818560208601612ca0565b80840191505092915050565b6000613b8b8285613acf565b9150613b978284613b4e565b91508190509392505050565b7f4f776e61626c653a206e6577206f776e657220697320746865207a65726f206160008201527f6464726573730000000000000000000000000000000000000000000000000000602082015250565b6000613bff602683612c8f565b9150613c0a82613ba3565b604082019050919050565b60006020820190508181036000830152613c2e81613bf2565b9050919050565b7f4552433732313a206f70657261746f7220717565727920666f72206e6f6e657860008201527f697374656e7420746f6b656e0000000000000000000000000000000000000000602082015250565b6000613c91602c83612c8f565b9150613c9c82613c35565b604082019050919050565b60006020820190508181036000830152613cc081613c84565b9050919050565b7f4552433732313a207472616e736665722066726f6d20696e636f72726563742060008201527f6f776e6572000000000000000000000000000000000000000000000000000000602082015250565b6000613d23602583612c8f565b9150613d2e82613cc7565b604082019050919050565b60006020820190508181036000830152613d5281613d16565b9050919050565b7f4552433732313a207472616e7366657220746f20746865207a65726f2061646460008201527f7265737300000000000000000000000000000000000000000000000000000000602082015250565b6000613db5602483612c8f565b9150613dc082613d59565b604082019050919050565b60006020820190508181036000830152613de481613da8565b9050919050565b6000613df682612d3f565b9150613e0183612d3f565b925082821015613e1457613e13613595565b5b828203905092915050565b6000613e2a82612d3f565b9150613e3583612d3f565b9250827fffffffffffffffffffffffffffffffffffffffffffffffffffffffffffffffff03821115613e6a57613e69613595565b5b828201905092915050565b7f4e487b7100000000000000000000000000000000000000000000000000000000600052603260045260246000fd5b600081519050613eb381612dfe565b92915050565b600060208284031215613ecf57613ece612bbf565b5b6000613edd84828501613ea4565b91505092915050565b7f4552433732313a20617070726f766520746f2063616c6c657200000000000000600082015250565b6000613f1c601983612c8f565b9150613f2782613ee6565b602082019050919050565b60006020820190508181036000830152613f4b81613f0f565b9050919050565b7f4552433732313a207472616e7366657220746f206e6f6e20455243373231526560008201527f63656976657220696d706c656d656e7465720000000000000000000000000000602082015250565b6000613fae603283612c8f565b9150613fb982613f52565b604082019050919050565b60006020820190508181036000830152613fdd81613fa1565b9050919050565b6000613fef82612d3f565b9150613ffa83612d3f565b92508261400a57614009613566565b5b828206905092915050565b600081519050919050565b600082825260208201905092915050565b600061403c82614015565b6140468185614020565b9350614056818560208601612ca0565b61405f81612cd3565b840191505092915050565b600060808201905061407f6000830187612dd4565b61408c6020830186612dd4565b6140996040830185612e97565b81810360608301526140ab8184614031565b905095945050505050565b6000815190506140c581612bf5565b92915050565b6000602082840312156140e1576140e0612bbf565b5b60006140ef848285016140b6565b91505092915050565b7f4552433732313a206d696e7420746f20746865207a65726f2061646472657373600082015250565b600061412e602083612c8f565b9150614139826140f8565b602082019050919050565b6000602082019050818103600083015261415d81614121565b9050919050565b7f4552433732313a20746f6b656e20616c7265616479206d696e74656400000000600082015250565b600061419a601c83612c8f565b91506141a582614164565b602082019050919050565b600060208201905081810360008301526141c98161418d565b905091905056fea26469706673582212209482909515e6140e070d1bf6ba3d2d238238f26da6acf5d562bd64c386d9e66c64736f6c634300080d0033",
  "linkReferences": {},
  "deployedLinkReferences": {}
}